{"contracts/WishList.sol":{"WishList":{"abi":[{"inputs":[],"name":"AlreadyBought","type":"error"},{"inputs":[],"name":"NotEnoughFunds","type":"error"},{"inputs":[],"name":"_itemIds","outputs":[{"internalType":"uint16","name":"","type":"uint16"}],"stateMutability":"view","type":"function"},{"inputs":[{"internalType":"string","name":"_name","type":"string"},{"internalType":"uint256","name":"_price","type":"uint256"}],"name":"addToWishList","outputs":[],"stateMutability":"nonpayable","type":"function"},{"inputs":[{"internalType":"address","name":"_for","type":"address"},{"internalType":"uint16","name":"_itemId","type":"uint16"}],"name":"buyItem","outputs":[],"stateMutability":"payable","type":"function"},{"inputs":[{"internalType":"address","name":"_of","type":"address"}],"name":"getWishList","outputs":[{"components":[{"internalType":"uint16","name":"itemId","type":"uint16"},{"internalType":"string","name":"name","type":"string"},{"internalType":"uint256","name":"price","type":"uint256"},{"internalType":"bool","name":"isBought","type":"bool"},{"internalType":"address","name":"buyer","type":"address"}],"internalType":"struct WishList.Item[]","name":"","type":"tuple[]"}],"stateMutability":"view","type":"function"}],"evm":{"bytecode":{"linkReferences":{},"object":"608060405234801561001057600080fd5b5061095c806100206000396000f3fe60806040526004361061003f5760003560e01c806334a7f1931461004457806399a73830146100775780639ef684a1146100a4578063b4ae788a146100b9575b600080fd5b34801561005057600080fd5b5060005461005f9061ffff1681565b60405161ffff90911681526020015b60405180910390f35b34801561008357600080fd5b506100976100923660046105c1565b6100d9565b60405161006e91906105e3565b6100b76100b23660046106ca565b610224565b005b3480156100c557600080fd5b506100b76100d4366004610708565b6103c7565b6001600160a01b0381166000908152600160209081526040808320805482518185028101850190935280835260609492939192909184015b828210156102195760008481526020908190206040805160a0810190915260048502909101805461ffff168252600181018054929391929184019161015590610780565b80601f016020809104026020016040519081016040528092919081815260200182805461018190610780565b80156101ce5780601f106101a3576101008083540402835291602001916101ce565b820191906000526020600020905b8154815290600101906020018083116101b157829003601f168201915b5050509183525050600282015460208083019190915260039092015460ff81161515604083015261010090046001600160a01b03166060909101529082526001929092019101610111565b505050509050919050565b6001600160a01b0382166102715760405162461bcd60e51b815260206004820152600f60248201526e496e76616c6964206164647265737360881b60448201526064015b60405180910390fd5b600061027d8383610510565b6001600160a01b03841660009081526001602052604081208054929350909161ffff84169081106102b0576102b06107ba565b9060005260206000209060040201905080600201543410156102e557604051631036b5ad60e31b815260040160405180910390fd5b600381015460ff161561030b5760405163059a32e160e11b815260040160405180910390fd5b60038101805460016001600160a81b03199091166101003302171790556040516000906001600160a01b0386169034908381818185875af1925050503d8060008114610373576040519150601f19603f3d011682016040523d82523d6000602084013e610378565b606091505b50509050806103c05760405162461bcd60e51b81526020600482015260146024820152732330b4b632b2103a379039b2b7321022ba3432b960611b6044820152606401610268565b5050505050565b6000805461ffff1690806103da836107d0565b91906101000a81548161ffff021916908361ffff1602179055505060008060009054906101000a900461ffff16905060006040518060a001604052808361ffff16815260200186868080601f0160208091040260200160405190810160405280939291908181526020018383808284376000920182905250938552505050602080830187905260408084018390526060909301829052338252600180825292822080548085018255908352918190208451600490930201805461ffff191661ffff909316929092178255830151929350839290918201906104bb9082610866565b50604082015160028201556060820151600390910180546080909301516001600160a01b031661010002610100600160a81b0319921515929092166001600160a81b0319909316929092171790555050505050565b600080805b6001600160a01b03851660009081526001602052604090205461ffff8216101561059d576001600160a01b0385166000908152600160205260409020805461ffff808716929190841690811061056d5761056d6107ba565b600091825260209091206004909102015461ffff160361058b578091505b80610595816107d0565b915050610515565b509392505050565b80356001600160a01b03811681146105bc57600080fd5b919050565b6000602082840312156105d357600080fd5b6105dc826105a5565b9392505050565b600060208083018184528085518083526040925060408601915060408160051b8701018488016000805b848110156106bb57603f198a8503018652825160a061ffff825116865289820151818b880152805180838901528592505b8083101561065c578183018c015188840160c00152918b019161063e565b60c092508583828a0101528a8401518b8901526060915081840151610684838a018215159052565b506080938401516001600160a01b03811689860152939150988b0198601f01601f191696909601019450509187019160010161060d565b50919998505050505050505050565b600080604083850312156106dd57600080fd5b6106e6836105a5565b9150602083013561ffff811681146106fd57600080fd5b809150509250929050565b60008060006040848603121561071d57600080fd5b833567ffffffffffffffff8082111561073557600080fd5b818601915086601f83011261074957600080fd5b81358181111561075857600080fd5b87602082850101111561076a57600080fd5b6020928301989097509590910135949350505050565b600181811c9082168061079457607f821691505b6020821081036107b457634e487b7160e01b600052602260045260246000fd5b50919050565b634e487b7160e01b600052603260045260246000fd5b600061ffff8083168181036107f557634e487b7160e01b600052601160045260246000fd5b6001019392505050565b634e487b7160e01b600052604160045260246000fd5b601f821115610861576000816000526020600020601f850160051c8101602086101561083e5750805b601f850160051c820191505b8181101561085d5782815560010161084a565b5050505b505050565b815167ffffffffffffffff811115610880576108806107ff565b6108948161088e8454610780565b84610815565b602080601f8311600181146108c957600084156108b15750858301515b600019600386901b1c1916600185901b17855561085d565b600085815260208120601f198616915b828110156108f8578886015182559484019460019091019084016108d9565b50858210156109165787850151600019600388901b60f8161c191681555b5050505050600190811b0190555056fea2646970667358221220b595ec2be19148bd92ce3588df9d358055f7304aae2750980102e81de97b315f64736f6c63430008180033","opcodes":"PUSH1 0x80 PUSH1 0x40 MSTORE CALLVALUE DUP1 ISZERO PUSH2 0x10 JUMPI PUSH1 0x0 DUP1 REVERT JUMPDEST POP PUSH2 0x95C DUP1 PUSH2 0x20 PUSH1 0x0 CODECOPY PUSH1 0x0 RETURN INVALID PUSH1 0x80 PUSH1 0x40 MSTORE PUSH1 0x4 CALLDATASIZE LT PUSH2 0x3F JUMPI PUSH1 0x0 CALLDATALOAD PUSH1 0xE0 SHR DUP1 PUSH4 0x34A7F193 EQ PUSH2 0x44 JUMPI DUP1 PUSH4 0x99A73830 EQ PUSH2 0x77 JUMPI DUP1 PUSH4 0x9EF684A1 EQ PUSH2 0xA4 JUMPI DUP1 PUSH4 0xB4AE788A EQ PUSH2 0xB9 JUMPI JUMPDEST PUSH1 0x0 DUP1 REVERT JUMPDEST CALLVALUE DUP1 ISZERO PUSH2 0x50 JUMPI PUSH1 0x0 DUP1 REVERT JUMPDEST POP PUSH1 0x0 SLOAD PUSH2 0x5F SWAP1 PUSH2 0xFFFF AND DUP2 JUMP JUMPDEST PUSH1 0x40 MLOAD PUSH2 0xFFFF SWAP1 SWAP2 AND DUP2 MSTORE PUSH1 0x20 ADD JUMPDEST PUSH1 0x40 MLOAD DUP1 SWAP2 SUB SWAP1 RETURN JUMPDEST CALLVALUE DUP1 ISZERO PUSH2 0x83 JUMPI PUSH1 0x0 DUP1 REVERT JUMPDEST POP PUSH2 0x97 PUSH2 0x92 CALLDATASIZE PUSH1 0x4 PUSH2 0x5C1 JUMP JUMPDEST PUSH2 0xD9 JUMP JUMPDEST PUSH1 0x40 MLOAD PUSH2 0x6E SWAP2 SWAP1 PUSH2 0x5E3 JUMP JUMPDEST PUSH2 0xB7 PUSH2 0xB2 CALLDATASIZE PUSH1 0x4 PUSH2 0x6CA JUMP JUMPDEST PUSH2 0x224 JUMP JUMPDEST STOP JUMPDEST CALLVALUE DUP1 ISZERO PUSH2 0xC5 JUMPI PUSH1 0x0 DUP1 REVERT JUMPDEST POP PUSH2 0xB7 PUSH2 0xD4 CALLDATASIZE PUSH1 0x4 PUSH2 0x708 JUMP JUMPDEST PUSH2 0x3C7 JUMP JUMPDEST PUSH1 0x1 PUSH1 0x1 PUSH1 0xA0 SHL SUB DUP2 AND PUSH1 0x0 SWAP1 DUP2 MSTORE PUSH1 0x1 PUSH1 0x20 SWAP1 DUP2 MSTORE PUSH1 0x40 DUP1 DUP4 KECCAK256 DUP1 SLOAD DUP3 MLOAD DUP2 DUP6 MUL DUP2 ADD DUP6 ADD SWAP1 SWAP4 MSTORE DUP1 DUP4 MSTORE PUSH1 0x60 SWAP5 SWAP3 SWAP4 SWAP2 SWAP3 SWAP1 SWAP2 DUP5 ADD JUMPDEST DUP3 DUP3 LT ISZERO PUSH2 0x219 JUMPI PUSH1 0x0 DUP5 DUP2 MSTORE PUSH1 0x20 SWAP1 DUP2 SWAP1 KECCAK256 PUSH1 0x40 DUP1 MLOAD PUSH1 0xA0 DUP2 ADD SWAP1 SWAP2 MSTORE PUSH1 0x4 DUP6 MUL SWAP1 SWAP2 ADD DUP1 SLOAD PUSH2 0xFFFF AND DUP3 MSTORE PUSH1 0x1 DUP2 ADD DUP1 SLOAD SWAP3 SWAP4 SWAP2 SWAP3 SWAP2 DUP5 ADD SWAP2 PUSH2 0x155 SWAP1 PUSH2 0x780 JUMP JUMPDEST DUP1 PUSH1 0x1F ADD PUSH1 0x20 DUP1 SWAP2 DIV MUL PUSH1 0x20 ADD PUSH1 0x40 MLOAD SWAP1 DUP2 ADD PUSH1 0x40 MSTORE DUP1 SWAP3 SWAP2 SWAP1 DUP2 DUP2 MSTORE PUSH1 0x20 ADD DUP3 DUP1 SLOAD PUSH2 0x181 SWAP1 PUSH2 0x780 JUMP JUMPDEST DUP1 ISZERO PUSH2 0x1CE JUMPI DUP1 PUSH1 0x1F LT PUSH2 0x1A3 JUMPI PUSH2 0x100 DUP1 DUP4 SLOAD DIV MUL DUP4 MSTORE SWAP2 PUSH1 0x20 ADD SWAP2 PUSH2 0x1CE JUMP JUMPDEST DUP3 ADD SWAP2 SWAP1 PUSH1 0x0 MSTORE PUSH1 0x20 PUSH1 0x0 KECCAK256 SWAP1 JUMPDEST DUP2 SLOAD DUP2 MSTORE SWAP1 PUSH1 0x1 ADD SWAP1 PUSH1 0x20 ADD DUP1 DUP4 GT PUSH2 0x1B1 JUMPI DUP3 SWAP1 SUB PUSH1 0x1F AND DUP3 ADD SWAP2 JUMPDEST POP POP POP SWAP2 DUP4 MSTORE POP POP PUSH1 0x2 DUP3 ADD SLOAD PUSH1 0x20 DUP1 DUP4 ADD SWAP2 SWAP1 SWAP2 MSTORE PUSH1 0x3 SWAP1 SWAP3 ADD SLOAD PUSH1 0xFF DUP2 AND ISZERO ISZERO PUSH1 0x40 DUP4 ADD MSTORE PUSH2 0x100 SWAP1 DIV PUSH1 0x1 PUSH1 0x1 PUSH1 0xA0 SHL SUB AND PUSH1 0x60 SWAP1 SWAP2 ADD MSTORE SWAP1 DUP3 MSTORE PUSH1 0x1 SWAP3 SWAP1 SWAP3 ADD SWAP2 ADD PUSH2 0x111 JUMP JUMPDEST POP POP POP POP SWAP1 POP SWAP2 SWAP1 POP JUMP JUMPDEST PUSH1 0x1 PUSH1 0x1 PUSH1 0xA0 SHL SUB DUP3 AND PUSH2 0x271 JUMPI PUSH1 0x40 MLOAD PUSH3 0x461BCD PUSH1 0xE5 SHL DUP2 MSTORE PUSH1 0x20 PUSH1 0x4 DUP3 ADD MSTORE PUSH1 0xF PUSH1 0x24 DUP3 ADD MSTORE PUSH15 0x496E76616C69642061646472657373 PUSH1 0x88 SHL PUSH1 0x44 DUP3 ADD MSTORE PUSH1 0x64 ADD JUMPDEST PUSH1 0x40 MLOAD DUP1 SWAP2 SUB SWAP1 REVERT JUMPDEST PUSH1 0x0 PUSH2 0x27D DUP4 DUP4 PUSH2 0x510 JUMP JUMPDEST PUSH1 0x1 PUSH1 0x1 PUSH1 0xA0 SHL SUB DUP5 AND PUSH1 0x0 SWAP1 DUP2 MSTORE PUSH1 0x1 PUSH1 0x20 MSTORE PUSH1 0x40 DUP2 KECCAK256 DUP1 SLOAD SWAP3 SWAP4 POP SWAP1 SWAP2 PUSH2 0xFFFF DUP5 AND SWAP1 DUP2 LT PUSH2 0x2B0 JUMPI PUSH2 0x2B0 PUSH2 0x7BA JUMP JUMPDEST SWAP1 PUSH1 0x0 MSTORE PUSH1 0x20 PUSH1 0x0 KECCAK256 SWAP1 PUSH1 0x4 MUL ADD SWAP1 POP DUP1 PUSH1 0x2 ADD SLOAD CALLVALUE LT ISZERO PUSH2 0x2E5 JUMPI PUSH1 0x40 MLOAD PUSH4 0x1036B5AD PUSH1 0xE3 SHL DUP2 MSTORE PUSH1 0x4 ADD PUSH1 0x40 MLOAD DUP1 SWAP2 SUB SWAP1 REVERT JUMPDEST PUSH1 0x3 DUP2 ADD SLOAD PUSH1 0xFF AND ISZERO PUSH2 0x30B JUMPI PUSH1 0x40 MLOAD PUSH4 0x59A32E1 PUSH1 0xE1 SHL DUP2 MSTORE PUSH1 0x4 ADD PUSH1 0x40 MLOAD DUP1 SWAP2 SUB SWAP1 REVERT JUMPDEST PUSH1 0x3 DUP2 ADD DUP1 SLOAD PUSH1 0x1 PUSH1 0x1 PUSH1 0x1 PUSH1 0xA8 SHL SUB NOT SWAP1 SWAP2 AND PUSH2 0x100 CALLER MUL OR OR SWAP1 SSTORE PUSH1 0x40 MLOAD PUSH1 0x0 SWAP1 PUSH1 0x1 PUSH1 0x1 PUSH1 0xA0 SHL SUB DUP7 AND SWAP1 CALLVALUE SWAP1 DUP4 DUP2 DUP2 DUP2 DUP6 DUP8 GAS CALL SWAP3 POP POP POP RETURNDATASIZE DUP1 PUSH1 0x0 DUP2 EQ PUSH2 0x373 JUMPI PUSH1 0x40 MLOAD SWAP2 POP PUSH1 0x1F NOT PUSH1 0x3F RETURNDATASIZE ADD AND DUP3 ADD PUSH1 0x40 MSTORE RETURNDATASIZE DUP3 MSTORE RETURNDATASIZE PUSH1 0x0 PUSH1 0x20 DUP5 ADD RETURNDATACOPY PUSH2 0x378 JUMP JUMPDEST PUSH1 0x60 SWAP2 POP JUMPDEST POP POP SWAP1 POP DUP1 PUSH2 0x3C0 JUMPI PUSH1 0x40 MLOAD PUSH3 0x461BCD PUSH1 0xE5 SHL DUP2 MSTORE PUSH1 0x20 PUSH1 0x4 DUP3 ADD MSTORE PUSH1 0x14 PUSH1 0x24 DUP3 ADD MSTORE PUSH20 0x2330B4B632B2103A379039B2B7321022BA3432B9 PUSH1 0x61 SHL PUSH1 0x44 DUP3 ADD MSTORE PUSH1 0x64 ADD PUSH2 0x268 JUMP JUMPDEST POP POP POP POP POP JUMP JUMPDEST PUSH1 0x0 DUP1 SLOAD PUSH2 0xFFFF AND SWAP1 DUP1 PUSH2 0x3DA DUP4 PUSH2 0x7D0 JUMP JUMPDEST SWAP2 SWAP1 PUSH2 0x100 EXP DUP2 SLOAD DUP2 PUSH2 0xFFFF MUL NOT AND SWAP1 DUP4 PUSH2 0xFFFF AND MUL OR SWAP1 SSTORE POP POP PUSH1 0x0 DUP1 PUSH1 0x0 SWAP1 SLOAD SWAP1 PUSH2 0x100 EXP SWAP1 DIV PUSH2 0xFFFF AND SWAP1 POP PUSH1 0x0 PUSH1 0x40 MLOAD DUP1 PUSH1 0xA0 ADD PUSH1 0x40 MSTORE DUP1 DUP4 PUSH2 0xFFFF AND DUP2 MSTORE PUSH1 0x20 ADD DUP7 DUP7 DUP1 DUP1 PUSH1 0x1F ADD PUSH1 0x20 DUP1 SWAP2 DIV MUL PUSH1 0x20 ADD PUSH1 0x40 MLOAD SWAP1 DUP2 ADD PUSH1 0x40 MSTORE DUP1 SWAP4 SWAP3 SWAP2 SWAP1 DUP2 DUP2 MSTORE PUSH1 0x20 ADD DUP4 DUP4 DUP1 DUP3 DUP5 CALLDATACOPY PUSH1 0x0 SWAP3 ADD DUP3 SWAP1 MSTORE POP SWAP4 DUP6 MSTORE POP POP POP PUSH1 0x20 DUP1 DUP4 ADD DUP8 SWAP1 MSTORE PUSH1 0x40 DUP1 DUP5 ADD DUP4 SWAP1 MSTORE PUSH1 0x60 SWAP1 SWAP4 ADD DUP3 SWAP1 MSTORE CALLER DUP3 MSTORE PUSH1 0x1 DUP1 DUP3 MSTORE SWAP3 DUP3 KECCAK256 DUP1 SLOAD DUP1 DUP6 ADD DUP3 SSTORE SWAP1 DUP4 MSTORE SWAP2 DUP2 SWAP1 KECCAK256 DUP5 MLOAD PUSH1 0x4 SWAP1 SWAP4 MUL ADD DUP1 SLOAD PUSH2 0xFFFF NOT AND PUSH2 0xFFFF SWAP1 SWAP4 AND SWAP3 SWAP1 SWAP3 OR DUP3 SSTORE DUP4 ADD MLOAD SWAP3 SWAP4 POP DUP4 SWAP3 SWAP1 SWAP2 DUP3 ADD SWAP1 PUSH2 0x4BB SWAP1 DUP3 PUSH2 0x866 JUMP JUMPDEST POP PUSH1 0x40 DUP3 ADD MLOAD PUSH1 0x2 DUP3 ADD SSTORE PUSH1 0x60 DUP3 ADD MLOAD PUSH1 0x3 SWAP1 SWAP2 ADD DUP1 SLOAD PUSH1 0x80 SWAP1 SWAP4 ADD MLOAD PUSH1 0x1 PUSH1 0x1 PUSH1 0xA0 SHL SUB AND PUSH2 0x100 MUL PUSH2 0x100 PUSH1 0x1 PUSH1 0xA8 SHL SUB NOT SWAP3 ISZERO ISZERO SWAP3 SWAP1 SWAP3 AND PUSH1 0x1 PUSH1 0x1 PUSH1 0xA8 SHL SUB NOT SWAP1 SWAP4 AND SWAP3 SWAP1 SWAP3 OR OR SWAP1 SSTORE POP POP POP POP POP JUMP JUMPDEST PUSH1 0x0 DUP1 DUP1 JUMPDEST PUSH1 0x1 PUSH1 0x1 PUSH1 0xA0 SHL SUB DUP6 AND PUSH1 0x0 SWAP1 DUP2 MSTORE PUSH1 0x1 PUSH1 0x20 MSTORE PUSH1 0x40 SWAP1 KECCAK256 SLOAD PUSH2 0xFFFF DUP3 AND LT ISZERO PUSH2 0x59D JUMPI PUSH1 0x1 PUSH1 0x1 PUSH1 0xA0 SHL SUB DUP6 AND PUSH1 0x0 SWAP1 DUP2 MSTORE PUSH1 0x1 PUSH1 0x20 MSTORE PUSH1 0x40 SWAP1 KECCAK256 DUP1 SLOAD PUSH2 0xFFFF DUP1 DUP8 AND SWAP3 SWAP2 SWAP1 DUP5 AND SWAP1 DUP2 LT PUSH2 0x56D JUMPI PUSH2 0x56D PUSH2 0x7BA JUMP JUMPDEST PUSH1 0x0 SWAP2 DUP3 MSTORE PUSH1 0x20 SWAP1 SWAP2 KECCAK256 PUSH1 0x4 SWAP1 SWAP2 MUL ADD SLOAD PUSH2 0xFFFF AND SUB PUSH2 0x58B JUMPI DUP1 SWAP2 POP JUMPDEST DUP1 PUSH2 0x595 DUP2 PUSH2 0x7D0 JUMP JUMPDEST SWAP2 POP POP PUSH2 0x515 JUMP JUMPDEST POP SWAP4 SWAP3 POP POP POP JUMP JUMPDEST DUP1 CALLDATALOAD PUSH1 0x1 PUSH1 0x1 PUSH1 0xA0 SHL SUB DUP2 AND DUP2 EQ PUSH2 0x5BC JUMPI PUSH1 0x0 DUP1 REVERT JUMPDEST SWAP2 SWAP1 POP JUMP JUMPDEST PUSH1 0x0 PUSH1 0x20 DUP3 DUP5 SUB SLT ISZERO PUSH2 0x5D3 JUMPI PUSH1 0x0 DUP1 REVERT JUMPDEST PUSH2 0x5DC DUP3 PUSH2 0x5A5 JUMP JUMPDEST SWAP4 SWAP3 POP POP POP JUMP JUMPDEST PUSH1 0x0 PUSH1 0x20 DUP1 DUP4 ADD DUP2 DUP5 MSTORE DUP1 DUP6 MLOAD DUP1 DUP4 MSTORE PUSH1 0x40 SWAP3 POP PUSH1 0x40 DUP7 ADD SWAP2 POP PUSH1 0x40 DUP2 PUSH1 0x5 SHL DUP8 ADD ADD DUP5 DUP9 ADD PUSH1 0x0 DUP1 JUMPDEST DUP5 DUP2 LT ISZERO PUSH2 0x6BB JUMPI PUSH1 0x3F NOT DUP11 DUP6 SUB ADD DUP7 MSTORE DUP3 MLOAD PUSH1 0xA0 PUSH2 0xFFFF DUP3 MLOAD AND DUP7 MSTORE DUP10 DUP3 ADD MLOAD DUP2 DUP12 DUP9 ADD MSTORE DUP1 MLOAD DUP1 DUP4 DUP10 ADD MSTORE DUP6 SWAP3 POP JUMPDEST DUP1 DUP4 LT ISZERO PUSH2 0x65C JUMPI DUP2 DUP4 ADD DUP13 ADD MLOAD DUP9 DUP5 ADD PUSH1 0xC0 ADD MSTORE SWAP2 DUP12 ADD SWAP2 PUSH2 0x63E JUMP JUMPDEST PUSH1 0xC0 SWAP3 POP DUP6 DUP4 DUP3 DUP11 ADD ADD MSTORE DUP11 DUP5 ADD MLOAD DUP12 DUP10 ADD MSTORE PUSH1 0x60 SWAP2 POP DUP2 DUP5 ADD MLOAD PUSH2 0x684 DUP4 DUP11 ADD DUP3 ISZERO ISZERO SWAP1 MSTORE JUMP JUMPDEST POP PUSH1 0x80 SWAP4 DUP5 ADD MLOAD PUSH1 0x1 PUSH1 0x1 PUSH1 0xA0 SHL SUB DUP2 AND DUP10 DUP7 ADD MSTORE SWAP4 SWAP2 POP SWAP9 DUP12 ADD SWAP9 PUSH1 0x1F ADD PUSH1 0x1F NOT AND SWAP7 SWAP1 SWAP7 ADD ADD SWAP5 POP POP SWAP2 DUP8 ADD SWAP2 PUSH1 0x1 ADD PUSH2 0x60D JUMP JUMPDEST POP SWAP2 SWAP10 SWAP9 POP POP POP POP POP POP POP POP POP JUMP JUMPDEST PUSH1 0x0 DUP1 PUSH1 0x40 DUP4 DUP6 SUB SLT ISZERO PUSH2 0x6DD JUMPI PUSH1 0x0 DUP1 REVERT JUMPDEST PUSH2 0x6E6 DUP4 PUSH2 0x5A5 JUMP JUMPDEST SWAP2 POP PUSH1 0x20 DUP4 ADD CALLDATALOAD PUSH2 0xFFFF DUP2 AND DUP2 EQ PUSH2 0x6FD JUMPI PUSH1 0x0 DUP1 REVERT JUMPDEST DUP1 SWAP2 POP POP SWAP3 POP SWAP3 SWAP1 POP JUMP JUMPDEST PUSH1 0x0 DUP1 PUSH1 0x0 PUSH1 0x40 DUP5 DUP7 SUB SLT ISZERO PUSH2 0x71D JUMPI PUSH1 0x0 DUP1 REVERT JUMPDEST DUP4 CALLDATALOAD PUSH8 0xFFFFFFFFFFFFFFFF DUP1 DUP3 GT ISZERO PUSH2 0x735 JUMPI PUSH1 0x0 DUP1 REVERT JUMPDEST DUP2 DUP7 ADD SWAP2 POP DUP7 PUSH1 0x1F DUP4 ADD SLT PUSH2 0x749 JUMPI PUSH1 0x0 DUP1 REVERT JUMPDEST DUP2 CALLDATALOAD DUP2 DUP2 GT ISZERO PUSH2 0x758 JUMPI PUSH1 0x0 DUP1 REVERT JUMPDEST DUP8 PUSH1 0x20 DUP3 DUP6 ADD ADD GT ISZERO PUSH2 0x76A JUMPI PUSH1 0x0 DUP1 REVERT JUMPDEST PUSH1 0x20 SWAP3 DUP4 ADD SWAP9 SWAP1 SWAP8 POP SWAP6 SWAP1 SWAP2 ADD CALLDATALOAD SWAP5 SWAP4 POP POP POP POP JUMP JUMPDEST PUSH1 0x1 DUP2 DUP2 SHR SWAP1 DUP3 AND DUP1 PUSH2 0x794 JUMPI PUSH1 0x7F DUP3 AND SWAP2 POP JUMPDEST PUSH1 0x20 DUP3 LT DUP2 SUB PUSH2 0x7B4 JUMPI PUSH4 0x4E487B71 PUSH1 0xE0 SHL PUSH1 0x0 MSTORE PUSH1 0x22 PUSH1 0x4 MSTORE PUSH1 0x24 PUSH1 0x0 REVERT JUMPDEST POP SWAP2 SWAP1 POP JUMP JUMPDEST PUSH4 0x4E487B71 PUSH1 0xE0 SHL PUSH1 0x0 MSTORE PUSH1 0x32 PUSH1 0x4 MSTORE PUSH1 0x24 PUSH1 0x0 REVERT JUMPDEST PUSH1 0x0 PUSH2 0xFFFF DUP1 DUP4 AND DUP2 DUP2 SUB PUSH2 0x7F5 JUMPI PUSH4 0x4E487B71 PUSH1 0xE0 SHL PUSH1 0x0 MSTORE PUSH1 0x11 PUSH1 0x4 MSTORE PUSH1 0x24 PUSH1 0x0 REVERT JUMPDEST PUSH1 0x1 ADD SWAP4 SWAP3 POP POP POP JUMP JUMPDEST PUSH4 0x4E487B71 PUSH1 0xE0 SHL PUSH1 0x0 MSTORE PUSH1 0x41 PUSH1 0x4 MSTORE PUSH1 0x24 PUSH1 0x0 REVERT JUMPDEST PUSH1 0x1F DUP3 GT ISZERO PUSH2 0x861 JUMPI PUSH1 0x0 DUP2 PUSH1 0x0 MSTORE PUSH1 0x20 PUSH1 0x0 KECCAK256 PUSH1 0x1F DUP6 ADD PUSH1 0x5 SHR DUP2 ADD PUSH1 0x20 DUP7 LT ISZERO PUSH2 0x83E JUMPI POP DUP1 JUMPDEST PUSH1 0x1F DUP6 ADD PUSH1 0x5 SHR DUP3 ADD SWAP2 POP JUMPDEST DUP2 DUP2 LT ISZERO PUSH2 0x85D JUMPI DUP3 DUP2 SSTORE PUSH1 0x1 ADD PUSH2 0x84A JUMP JUMPDEST POP POP POP JUMPDEST POP POP POP JUMP JUMPDEST DUP2 MLOAD PUSH8 0xFFFFFFFFFFFFFFFF DUP2 GT ISZERO PUSH2 0x880 JUMPI PUSH2 0x880 PUSH2 0x7FF JUMP JUMPDEST PUSH2 0x894 DUP2 PUSH2 0x88E DUP5 SLOAD PUSH2 0x780 JUMP JUMPDEST DUP5 PUSH2 0x815 JUMP JUMPDEST PUSH1 0x20 DUP1 PUSH1 0x1F DUP4 GT PUSH1 0x1 DUP2 EQ PUSH2 0x8C9 JUMPI PUSH1 0x0 DUP5 ISZERO PUSH2 0x8B1 JUMPI POP DUP6 DUP4 ADD MLOAD JUMPDEST PUSH1 0x0 NOT PUSH1 0x3 DUP7 SWAP1 SHL SHR NOT AND PUSH1 0x1 DUP6 SWAP1 SHL OR DUP6 SSTORE PUSH2 0x85D JUMP JUMPDEST PUSH1 0x0 DUP6 DUP2 MSTORE PUSH1 0x20 DUP2 KECCAK256 PUSH1 0x1F NOT DUP7 AND SWAP2 JUMPDEST DUP3 DUP2 LT ISZERO PUSH2 0x8F8 JUMPI DUP9 DUP7 ADD MLOAD DUP3 SSTORE SWAP5 DUP5 ADD SWAP5 PUSH1 0x1 SWAP1 SWAP2 ADD SWAP1 DUP5 ADD PUSH2 0x8D9 JUMP JUMPDEST POP DUP6 DUP3 LT ISZERO PUSH2 0x916 JUMPI DUP8 DUP6 ADD MLOAD PUSH1 0x0 NOT PUSH1 0x3 DUP9 SWAP1 SHL PUSH1 0xF8 AND SHR NOT AND DUP2 SSTORE JUMPDEST POP POP POP POP POP PUSH1 0x1 SWAP1 DUP2 SHL ADD SWAP1 SSTORE POP JUMP INVALID LOG2 PUSH5 0x6970667358 0x22 SLT KECCAK256 0xB5 SWAP6 0xEC 0x2B 0xE1 SWAP2 BASEFEE 0xBD SWAP3 0xCE CALLDATALOAD DUP9 0xDF SWAP14 CALLDATALOAD DUP1 SSTORE 0xF7 ADDRESS BLOBBASEFEE 0xAE 0x27 POP SWAP9 ADD MUL 0xE8 SAR 0xE9 PUSH28 0x315F64736F6C63430008180033000000000000000000000000000000 "},"methodIdentifiers":{"_itemIds()":"34a7f193","addToWishList(string,uint256)":"b4ae788a","buyItem(address,uint16)":"9ef684a1","getWishList(address)":"99a73830"}}}}}