{
  "_format": "hh-sol-artifact-1",
  "contractName": "WishList",
  "sourceName": "contracts/WishList.sol",
  "abi": [
    {
      "inputs": [],
      "name": "AlreadyBought",
      "type": "error"
    },
    {
      "inputs": [],
      "name": "NotEnoughFunds",
      "type": "error"
    },
    {
      "inputs": [],
      "name": "_itemIds",
      "outputs": [
        {
          "internalType": "uint16",
          "name": "",
          "type": "uint16"
        }
      ],
      "stateMutability": "view",
      "type": "function"
    },
    {
      "inputs": [
        {
          "internalType": "string",
          "name": "_name",
          "type": "string"
        },
        {
          "internalType": "uint256",
          "name": "_price",
          "type": "uint256"
        }
      ],
      "name": "addToWishList",
      "outputs": [],
      "stateMutability": "nonpayable",
      "type": "function"
    },
    {
      "inputs": [
        {
          "internalType": "address",
          "name": "_for",
          "type": "address"
        },
        {
          "internalType": "uint16",
          "name": "_itemId",
          "type": "uint16"
        }
      ],
      "name": "buyItem",
      "outputs": [],
      "stateMutability": "payable",
      "type": "function"
    },
    {
      "inputs": [
        {
          "internalType": "address",
          "name": "_of",
          "type": "address"
        }
      ],
      "name": "getWishList",
      "outputs": [
        {
          "components": [
            {
              "internalType": "uint16",
              "name": "itemId",
              "type": "uint16"
            },
            {
              "internalType": "string",
              "name": "name",
              "type": "string"
            },
            {
              "internalType": "uint256",
              "name": "price",
              "type": "uint256"
            },
            {
              "internalType": "bool",
              "name": "isBought",
              "type": "bool"
            },
            {
              "internalType": "address",
              "name": "buyer",
              "type": "address"
            }
          ],
          "internalType": "struct WishList.Item[]",
          "name": "",
          "type": "tuple[]"
        }
      ],
      "stateMutability": "view",
      "type": "function"
    }
  ],
  "bytecode": "0x608060405234801561001057600080fd5b5061095c806100206000396000f3fe60806040526004361061003f5760003560e01c806334a7f1931461004457806399a73830146100775780639ef684a1146100a4578063b4ae788a146100b9575b600080fd5b34801561005057600080fd5b5060005461005f9061ffff1681565b60405161ffff90911681526020015b60405180910390f35b34801561008357600080fd5b506100976100923660046105c1565b6100d9565b60405161006e91906105e3565b6100b76100b23660046106ca565b610224565b005b3480156100c557600080fd5b506100b76100d4366004610708565b6103c7565b6001600160a01b0381166000908152600160209081526040808320805482518185028101850190935280835260609492939192909184015b828210156102195760008481526020908190206040805160a0810190915260048502909101805461ffff168252600181018054929391929184019161015590610780565b80601f016020809104026020016040519081016040528092919081815260200182805461018190610780565b80156101ce5780601f106101a3576101008083540402835291602001916101ce565b820191906000526020600020905b8154815290600101906020018083116101b157829003601f168201915b5050509183525050600282015460208083019190915260039092015460ff81161515604083015261010090046001600160a01b03166060909101529082526001929092019101610111565b505050509050919050565b6001600160a01b0382166102715760405162461bcd60e51b815260206004820152600f60248201526e496e76616c6964206164647265737360881b60448201526064015b60405180910390fd5b600061027d8383610510565b6001600160a01b03841660009081526001602052604081208054929350909161ffff84169081106102b0576102b06107ba565b9060005260206000209060040201905080600201543410156102e557604051631036b5ad60e31b815260040160405180910390fd5b600381015460ff161561030b5760405163059a32e160e11b815260040160405180910390fd5b60038101805460016001600160a81b03199091166101003302171790556040516000906001600160a01b0386169034908381818185875af1925050503d8060008114610373576040519150601f19603f3d011682016040523d82523d6000602084013e610378565b606091505b50509050806103c05760405162461bcd60e51b81526020600482015260146024820152732330b4b632b2103a379039b2b7321022ba3432b960611b6044820152606401610268565b5050505050565b6000805461ffff1690806103da836107d0565b91906101000a81548161ffff021916908361ffff1602179055505060008060009054906101000a900461ffff16905060006040518060a001604052808361ffff16815260200186868080601f0160208091040260200160405190810160405280939291908181526020018383808284376000920182905250938552505050602080830187905260408084018390526060909301829052338252600180825292822080548085018255908352918190208451600490930201805461ffff191661ffff909316929092178255830151929350839290918201906104bb9082610866565b50604082015160028201556060820151600390910180546080909301516001600160a01b031661010002610100600160a81b0319921515929092166001600160a81b0319909316929092171790555050505050565b600080805b6001600160a01b03851660009081526001602052604090205461ffff8216101561059d576001600160a01b0385166000908152600160205260409020805461ffff808716929190841690811061056d5761056d6107ba565b600091825260209091206004909102015461ffff160361058b578091505b80610595816107d0565b915050610515565b509392505050565b80356001600160a01b03811681146105bc57600080fd5b919050565b6000602082840312156105d357600080fd5b6105dc826105a5565b9392505050565b600060208083018184528085518083526040925060408601915060408160051b8701018488016000805b848110156106bb57603f198a8503018652825160a061ffff825116865289820151818b880152805180838901528592505b8083101561065c578183018c015188840160c00152918b019161063e565b60c092508583828a0101528a8401518b8901526060915081840151610684838a018215159052565b506080938401516001600160a01b03811689860152939150988b0198601f01601f191696909601019450509187019160010161060d565b50919998505050505050505050565b600080604083850312156106dd57600080fd5b6106e6836105a5565b9150602083013561ffff811681146106fd57600080fd5b809150509250929050565b60008060006040848603121561071d57600080fd5b833567ffffffffffffffff8082111561073557600080fd5b818601915086601f83011261074957600080fd5b81358181111561075857600080fd5b87602082850101111561076a57600080fd5b6020928301989097509590910135949350505050565b600181811c9082168061079457607f821691505b6020821081036107b457634e487b7160e01b600052602260045260246000fd5b50919050565b634e487b7160e01b600052603260045260246000fd5b600061ffff8083168181036107f557634e487b7160e01b600052601160045260246000fd5b6001019392505050565b634e487b7160e01b600052604160045260246000fd5b601f821115610861576000816000526020600020601f850160051c8101602086101561083e5750805b601f850160051c820191505b8181101561085d5782815560010161084a565b5050505b505050565b815167ffffffffffffffff811115610880576108806107ff565b6108948161088e8454610780565b84610815565b602080601f8311600181146108c957600084156108b15750858301515b600019600386901b1c1916600185901b17855561085d565b600085815260208120601f198616915b828110156108f8578886015182559484019460019091019084016108d9565b50858210156109165787850151600019600388901b60f8161c191681555b5050505050600190811b0190555056fea2646970667358221220b595ec2be19148bd92ce3588df9d358055f7304aae2750980102e81de97b315f64736f6c63430008180033",
  "linkReferences": {},
  "deployedLinkReferences": {}
}